:10000000F4EF0AF068961200046ED8CF05F0E0CF46
:1000100006F00001E9CF0CF0EACF07F0E1CF08F0DD
:10002000E2CF09F0D9CF0AF0DACF0BF0F3CF12F01C
:10003000F4CF13F0FACF14F000C00EF001C00FF0AF
:1000400002C010F003C011F0F2AA2AEF00F0F2B4DF
:1000500097EF07F09DA430EF00F09EB49FEF06F0FD
:10006000A0A036EF00F0A1B063EF07F0A0AA3CEF2C
:1000700000F0A1BA66EF06F00EC000F00FC001F06C
:1000800010C002F011C003F00CC0E9FF07C0EAFF86
:10009000078E08C0E1FF09C0E2FF0AC0D9FF0BC00C
:1000A000DAFF12C0F3FF13C0F4FF14C0FAFF0450CC
:1000B00006C0E0FF05C0D8FF1000F76ACA0FF66E51
:1000C000000EF7220900F55012000003FFFFFFFFAA
:1000D000FFFFFFFFFFFFFFFFFFFFF76AEA0FF66E6C
:1000E000000EF7220900F550120040000300000046
:1000F0000000000000000000000000000000000000
:1001000000000000000000000000F76A1A0FF66E01
:10011000010EF7220900F55012000600FF0901A1A7
:1001200001190129081580257F750895028102199A
:10013000012908750895029102C0F76A4A0FF66E08
:10014000010EF7220900F55012000000F76A5C0F5B
:10015000F66E010EF7220900F55012002000F76A32
:100160006E0FF66E010EF7220900F550120009021B
:100170002900010100803209040000020300000090
:100180000921000100012220000705810303000A64
:100190000705010303000A00F76AA80FF66E010EB7
:1001A000F7220900F55012000100F76ABA0FF66E47
:1001B000010EF7220900F55012001200F76ACC0F69
:1001C000F66E010EF7220900F5501200120110011F
:1001D0000000004061042000000101020001F76AF4
:1001E000EE0FF66E010EF7220900F550120004031F
:1001F000090408034300430053001A03430043006B
:1002000053002000480049004400200044006500DD
:100210006D006F006D92699468A402D06894FCD759
:1002200072EF06F0400E0401016F040E036F100E12
:10023000026F880E006F046B040E076F500E066F7E
:100240000001120070A002D0EDDF7090689A79EF83
:1002500006F06A6A68927EEF06F0749173BF74814B
:10026000739F7351100803E2000E016E20D074A139
:1002700010D0036A7351F2CF75F0F29E1EDF75BF86
:10028000F28EFF0802E1000E01D0010E016E0FD0C8
:100290000ED0036A7351F2CF75F0F29E0EDF75BF78
:1002A000F28EFF0802E1000E01D0010E016E120075
:1002B000036A7251700FE96E0F0E0320EA6EEF6A47
:1002C00072C073F0CADF015218E07251080DF3508A
:1002D000746BE96E040E7425EA6EEF6A7251080DB4
:1002E000F350746B736F040E7327000E742373C086
:1002F000E9FF040E7425EA6EEF6A1200010E716FB9
:1003000071510F0805E371C072F0D2DF712BF8D77D
:100310001200256A246A676B67530AE1036A675112
:10032000260FE96E000E0320EA6EEF6A672BF4D702
:10033000186A010E196E176A12006A6A686A9F0EBF
:100340006B6E3D0E696E6E6AD9DFE3DF160E706E5E
:1003500068A602D057DEFCD76D9864DF030E1F6ECF
:1003600083EF06F0698468986D8288EF06F0689CD8
:100370008DEF06F06CC020F01200206812006A6B4E
:100380002450251046E06A513F0843E31A50FC0F01
:100390002EE2040F14EF02F023C003F02250F2CF3C
:1003A0006CF0F29EDCDE6CBFF28E6B6F20D023C04F
:1003B00003F02250F2CF6CF0F29EA7DE6CBFF28EFB
:1003C0006B6F15D023C003F02250F2CF6CF0F29E79
:1003D00006DF6CBFF28E6B6F0AD023C003F0225091
:1003E000F2CF6CF0F29EEADE6CBFF28E6B6F222AC7
:1003F000D8B4232A2450D8B4250624066A516A2B7F
:10040000036A500FE96E040E0320EA6E6BC0EFFF23
:10041000B7D72450251004E16A51400801E0176A5B
:100420006AC06CF0A7DF1200E824F76AF736430FC2
:10043000F66E040EF7220A00F550FA6E0800F55029
:10044000F96E9803AE03C403DA03236A226A1A6AB8
:1004500004011351010A000109E0030A0DE0010A39
:100460000FE0220A29E0030A4AE06FD0256A120E43
:10047000246E030E1A6E6BD0256A290E246E67D087
:10048000020E1A6E036A040112511B0FE96E000E70
:100490000320EA6E236AEFCF22F023C003F022503C
:1004A000F2CF6AF0F29E00019ADE6ABFF28E036A12
:1004B000246E03C025F04BD0036A04011251F2CF21
:1004C0006AF0F29E000171DE6ABFF28E036A226E4C
:1004D00003C023F0223C02D023520FE023C003F0DC
:1004E0002250F2CF6AF0F29E3ADE6ABFF28E036AC1
:1004F000246E03C025F02BD002D03FDF37D0036A33
:1005000004011451F2CF6AF0F29E000116DE6ABFB8
:10051000F28E036A226E03C023F0223C02D02352E3
:1005200012E0010E1A6E036A04011451F2CF6AF050
:10053000F29E00010BDE6ABFF28E036A246E03C0D6
:1005400025F005D002D019DF11D017DF0FD004013C
:10055000175308E1255203E12450165D03E2256A92
:1005600016C424F0010E176E000109DF1200695352
:1005700004E1040E1F6EC2DED1D0050E1F6E040E04
:100580006C6F900E6B6F010E6A6F6A510F08D8A0E6
:10059000C5D06AC072F08CDE6D6B036A6A51F2CF0F
:1005A00071F0F29E8ADD71BFF28EFF0859E0040EF1
:1005B0006D6FD8906A35036AF2CF71F0F29E8DDDCF
:1005C0000900F5CF03F071BFF28E6E6F03C06FF0BC
:1005D0006A51080DF350726B716F010E7125016E37
:1005E000000E7221036E01C0E9FF040E0324EA6EBF
:1005F0006EC0EFFF6A51080DF350726B716F020EFF
:100600007125016E000E7221036E01C0E9FF040E18
:100610000324EA6E6CC0ECFFED526BC0EFFFD89084
:100620006A35036AF2CF71F0F29E57DD0900F5CF0B
:1006300003F071BFF28E6B2703506C23880E706F2E
:100640006FA101D070816FA301D070836A51080D32
:10065000F350726BE96E040E7225EA6E70C0EFFF04
:10066000036A6A51F2CF71F0F29E27DD71BFF28EFC
:10067000FF0839E06D836A51080DF350726B716F9A
:10068000040E7127000E7223020E7125016E000EFA
:100690007221036E01C0E9FF040E0324EA6E6CC0F0
:1006A000ECFFED526BC0EFFFD8906A35036AF2CFD2
:1006B00071F0F29E12DD0900F5CF03F071BFF28EEA
:1006C0006B2703506C236A51080DF350726B716FE6
:1006D000040E7127000E722371C0E9FF040E72250B
:1006E000EA6E400EEF6E6D51060802E10E0E6D6F60
:1006F000036A6A51F2CF71F0F29EDFDC71BFF28EB5
:10070000010801E06D89036A6A51700FE96E0F0EEE
:100710000320EA6E6DC0EFFF6A2B37D7DDEF03F0E1
:1007200004011151000A00010DE0010A14E0020A5F
:100730001FE0060A29E0030A2EE00E0A2EE0010A55
:1007400032E040D019C050F40401516B020E000198
:100750006C6F10DE38D00401122D07D0010E19166F
:1007600000016C6B07DE03D00401000106DE2BD014
:100770000401122D06D0198200016C6BFBDD03D041
:1007800004010001FADD1FD0020E176E12C421F021
:100790006C6BF0DD18D059DE16D018C050F4010E85
:1007A0006C6FE8DD10D004011251010809E312C496
:1007B00018F012C469F00001DAD66C6BDBDD0401BD
:1007C000000101D0DADDF0EF04F018C069F0040197
:1007D0001151000A000107E00A0A0DE0010A2DE0AC
:1007E0000D0A3DE03ED00401506B516B020E00013A
:1007F0006C6FC0DD37D069531EE0010E695D036A7E
:10080000F2CF6AF0F29EC8DC6ABFF28E016E04017C
:10081000145DD8A002D000010ED0036A1451260F37
:10082000E96E000E0320EA6EEFCF50F4010E0001D6
:100830006C6FA0DD01D0A1DD15D069530EE0036A15
:1008400004011451260FE96E000E0320EA6E12C453
:10085000EFFF00016C6B8EDD01D08FDD03D0F5DD85
:1008600001D08BDDF0EF04F06A9169BF6A81699F66
:100870006AA111D06951080DF3506C6B6B6F040EB7
:100880006B27000E6C236BC0E9FF040E6C25EA6E2B
:10089000880EEF6E09D06951080DF3506C6BE96E4C
:1008A000040E6C25EA6EEF6AB6EF04F06A9169BF38
:1008B0006A81699F6AA111D06951080DF3506C6B70
:1008C0006B6F040E6B27000E6C236BC0E9FF040EE8
:1008D0006C25EA6E840EEF6E0AD06951080DF35054
:1008E0006C6BE96E040E6C25EA6E840EEF6EBCEF45
:1008F00004F06A9169BF6A81699F6AA111D0695148
:10090000080DF3506D6B6C6F040E6C27000E6D2399
:100910006CC0E9FF040E6D25EA6EEFCF6BF00AD0D4
:100920006951080DF3506D6BE96E040E6D25EA6E8A
:10093000EFCF6BF06BAF02D06BB502D0000E01D0E1
:10094000010E016EC6EF04F014C473F086DC015290
:1009500028E004011151010A000105E0020A09E042
:10096000030A0DE01DD014C469F07ED76C6B02DD64
:1009700018D014C469F09AD76C6BFCDC12D0040157
:10098000506B516B14C469F00001B3D7015204E0FD
:10099000010E0401506F0001020E6C6FEBDC01D000
:1009A000ECDCF0EF04F0040111510001E6DCF0EFA3
:1009B00004F0176A040110517F0B000A000107E0E0
:1009C000010A07E0030A07E0230A07E008D0A8D6D7
:1009D00007D0FBD605D0B8D703D0E5D701D0CDDC02
:1009E0001CEF06F06951080DF3506F6BE96E040EB1
:1009F0006F25EA6EEFCF6BF06A51020806E16BAD2E
:100A000002D06A6B02D0010E6A6F6A51030813E1CB
:100A1000840E6B6F6951080DF3506F6B6E6F040E8F
:100A20006E27000E6F236EC0E9FF040E6F25EA6E7D
:100A3000840EEF6E07D06A2D03D0C80E6B6F02D004
:100A4000880E6B6FD8906935036AF2CF6EF0F29E14
:100A50006DEC00F00900F5CF03F06EBFF28E6C6F05
:100A600003C06DF06951080DF3506F6B6E6F010E8E
:100A70006E25016E000E6F21036E01C0E9FF040EAA
:100A80000324EA6E6CC0EFFF6DA101D06B816DA3F2
:100A900001D06B836951080DF3506F6BE96E040E42
:100AA0006F25EA6E6BC0EFFF1200036A6E51700F84
:100AB000E96E0F0E0320EA6EEF5212E06E51080D40
:100AC000F350706B6F6F040E6F27000E70236FC0B2
:100AD000E9FF040E7025EA6EEFCF71F071AF02D01E
:100AE000000E01D0010E016E120069C06EF0DDDF54
:100AF000015263E06951080DF3506F6B6E6F040E85
:100B00006E27000E6F23010E6E25016E000E6F2101
:100B1000036E01C0E9FF040E0324EA6E6AC0EFFF12
:100B20006C51020817E16951080DF3506F6B6E6F3D
:100B3000040E6E27000E6F236EC0E9FF040E6F25B2
:100B4000EA6EEFCF6DF06DAD02D06C6B02D0010E8E
:100B50006C6F13D06C51040810E16951080DF3500B
:100B60006F6BE96E040E6F25EA6EEFCF6DF06DAD21
:100B700003D0010E6C6F01D06C6B6C2D03D0C80ECE
:100B80006D6F02D0880E6D6F6BA101D06D816BA36C
:100B900001D06D836951080DF3506F6B6E6F040EB9
:100BA0006E27000E6F236EC0E9FF040E6F25EA6EFC
:100BB0006DC0EFFF010E016E02D0000E016E12003B
:100BC000695300E112006AC06EFF6A5303E0040E2D
:100BD0001F6E02D0020E1F6EF3EF05F0186A176A3F
:100BE00021C06AF0F0D700EF06F0695309E1172C35
:100BF00003D0BFEC01F004D017500208D8B4EED7F0
:100C000012001E30676F673367331F0E67171E525F
:100C100041E1040100513C0B0001686F430E0401E7
:100C200000170001685134081EE104010451800BD3
:100C300001E0046B0001BDD66D98203C05D0696BC6
:100C4000030E6A6FCFDE0ED0696B020E6A6FCADECA
:100C50002050FE0807E0696B6B6B20C06AF0040E41
:100C60006C6F43DF16D06851040813E1696BA8DF8D
:100C7000696B020E6A6FB6DE2050FE080AE0203C67
:100C800001D007D0696B6B6B20C06AF0010E6C6FEE
:100C90002CDF1AD01E5004080EE12068696BA5DF16
:100CA000203C01D007D0696B6B6B20C06AF0020E4C
:100CB0006C6F1BDF09D01EB404D067C069F080DF01
:100CC00003D067C069F091DF97EF06F0A19A1F5239
:100CD000D8B433D06852D8B430D068A403D069B443
:100CE0000AEF01F06DB229D068AA03D069BA22EFE9
:100CF00001F068A203D069B229EF01F068A003D027
:100D000069B09DEF01F068A803D069B8B2EF01F0B7
:100D100068AC03D069BCB7EF01F0666B68A608D079
:100D200069A606D06CCF1EF002EC00F06AD701D0A5
:100D300004D06651662B0308F1E23CEF00F03EA4BC
:100D400006D09484BD6A040EBD6E3E9405D0948492
:100D5000BD6A050EBD6E3E844550BE5C666FBFCF5A
:100D600046F0BECF45F03D50FC0FD8B098D0040FF0
:100D700052EF07F06651360802E23E703E823EA214
:100D800017D0270E3B246A6F6B6BD8B06B2B3EB02D
:100D900002D0D89001D0D8806BC0EAFF6AC0E9FFCA
:100DA000ED32442A3C2A3C50080802E13C6A3B2AC6
:100DB0003E7275D03B503B2A036A270FE96E000E46
:100DC0000320EA6E66C0EFFF442A69D042503F5CC0
:100DD000665D06E005E342503F24665D01E23E8623
:100DE0005ED0036A3B504024E96E41500320EA6E16
:100DF0004250EF5C665D12E011E3036A3B50402411
:100E0000E96E41500320EA6E4250EF24665D06E22F
:100E10003B2A44503B5C01E13E8841D03B523FE0DD
:100E2000010E3B5C676F3B063AE0036A3B5040248F
:100E3000E96E41500320EA6E4250EF5C665D2EE0A1
:100E40002DE3036A3B504024E96E41500320EA6ED3
:100E50004250EF24665D22E267C068F0010E3B5C01
:100E6000696F693D01D017D0036A69514024E96E6A
:100E700041500320EA6EEFCF6AF0036A68514024C4
:100E8000E96E41500320EA6EEF506A5D01E003D045
:100E900068076907E6D7693D01D001D0C4D79E94A1
:100EA0003CEF00F0E824F76AF736BF0FF66E0E0E3F
:100EB000F7220A00F550FA6E0800F550F96E740D2D
:100EC000B40DCC0DE20D3EAA27D03B50140824E00F
:100ED000036A3B50270FE96E000E0320EA6EEFCF46
:100EE00066F066C000F03C50016E04E0D89000321D
:100EF000012EFCD700A002D08A9401D08A8493945A
:100F00003C2A3C50080802E13C6A3B2A1E0EBB26E4
:100F1000000EBC223E9A08D093948A94220EBB26DF
:100F2000000EBC22442A3E8AA1903CEF00F0432AE6
:100F3000F2943CEF00F00D0A0A55534220636F6EA5
:100F40006E65637465642C2077616974696E6720CF
:100F5000666F7220656E756D61726174696F6E2E59
:100F60002E2E00000D0A0A55534220646973636FE8
:100F70006E6E65637465642C2077616974696E6751
:100F800020666F7220636F6E6E656374696F6E2E7C
:100F90002E2E00000D0A0A55534220656E756D65B0
:100FA00072617465642062792050432F484F535416
:100FB00000000D0A0A55534220756E656E756D6509
:100FC00072617465642062792050432F484F5354F6
:100FD0002C2077616974696E6720666F7220656E78
:100FE000756D65726174696F6E2E2E2E0000496EEC
:100FF000697420555342200D0A00496E69742052CD
:10100000464944200D0A0000524649442053657465
:1010100074696E672E2E2E2E2E2E0D0A000044614E
:10102000746120524649443A0D0A000053656E64CB
:1010300020646174610D0A000900F5520DE0F6CFDD
:1010400057F0F7CF58F0F5509EA8FED7AD6E57C0B9
:10105000F6FF58C0F7FFF0D712006D6A696A080EF4
:101060006F6E94503009946E1F6A166AF2BE168E27
:10107000F29E89EC01F016BEF28E40EF08F0EDD73B
:1010800039EF0BF0EA6A560EE96EEF500EE00F0EE4
:10109000016E006A002EFED7012EFBD78F0E006E68
:1010A000002EFED70000EF2EF2D7120093928A9204
:1010B00093948A94830ECD6E9484BD6A050EBD6EA2
:1010C0000A0EBA6EC70ED56EF28AC00EF2124EEF3D
:1010D0000BF0166AF2BE168EF29E89EC01F016BE77
:1010E000F28E6D6A140E6F6E696A6D86010E1F6E48
:1010F0007DEF08F06DB601D0ECD71F2C0BD06DBA88
:1011000009D0686A696AA08AC00EF212110E696E6F
:10111000020E1F6E5FEF0BF01850016E1200010EF1
:10112000556EFADF01C056F0555207E0535205E103
:10113000360EF66E0F0EF76E7FDF555207E15352F3
:1011400005E0640EF66E0F0EF76E76DF565207E07E
:10115000545205E1940EF66E0F0EF76E6DDF565287
:1011600007E1545205E0B20EF66E0F0EF76E64DF23
:1011700055C053F056C054F060EF0BF05A5206E0E1
:101180009484BD6A050EBD6E3E8405D09484BD6A0C
:10119000040EBD6E3E94D0EF08F059C05AF0EED761
:1011A0003D6A3E823E903B6A3C6A446A436A466AB4
:1011B000456ACF6ACE6A9E949D845850445C03E28F
:1011C00043500E08FAE29D943B6A3C6A44C001F029
:1011D00049EF0AF03B5014081BE0036A3B50270F0D
:1011E000E96E000E0320EA6EEFCF5EF05EC000F005
:1011F0003C50016E04E0D8900032012EFCD75D9087
:1012000000B05D803C2A3C50080802E13B2A3C6A61
:10121000000E5DB0010E016E1200586A3B501408BA
:101220000DE0D8DF012C08D0582A5850090803E1F6
:10123000010E016E05D001D0586AF0D7000E016E84
:1012400051EF0AF05D50016A5C5C03E25CC000F0A3
:101250000CD0006A080E5E6E5C3600365D50005C95
:10126000D8B0006E01365E2EF7D712005A90010EEC
:101270005B6E5A925A945A965A985A9A5B6E5B5081
:101280003208D8A07BD0A6DF5A9001B05A803B50DC
:10129000140803E1000E016EB1D05BC05CF0050ED6
:1012A0005D6ED0DF00520CE1006A5AB000825A50E5
:1012B0000018020B03E0000E016EA0D05A925CD021
:1012C0005AB002D0D89001D0D88059C0EAFF58C097
:1012D000E9FFEC52EC52EC52EC52ED32ED32ED32D1
:1012E000ED32ED32000E5AB2010E5C6E000E5AB0B5
:1012F000010E5C185A92E8B05A825BC05CF0050E91
:101300005D6EA0DF0050FF0FFC0F36E2040F00EF10
:101310000AF0000E5AB4010E5C6E000E5AB0010EB7
:101320005C18016E5A94E8B05A8426D0000E5AB662
:10133000010E5C6E000E5AB0010E5C18016E5A96DA
:10134000E8B05A8619D0000E5AB8010E5C6E000E35
:101350005AB0010E5C18016E5A98E8B05A880CD049
:10136000000E5ABA010E5C6E000E5AB0010E5C18E7
:10137000016E5A9AE8B05A8A5B2A81D7000E5AB495
:10138000010E5C6E27DF01505C5C18E1000E5AB65E
:10139000010E5C6E1FDF01505C5C10E1000E5AB85C
:1013A000010E5C6E17DF01505C5C08E1000E5ABA5A
:1013B000010E5C6E0FDF01505C5C03E0000E016EFD
:1013C0001DD008DF015203E0000E016E17D05B6AEA
:1013D0005B5004080BE3036A5B505824E96E5950D4
:1013E0000320EA6EEF5202E15B2AF2D75B50050858
:1013F00003E1000E016E02D0010E016E58EF0AF0FB
:10140000F2CF0DF0F29EE824F76AF736250FF66E5C
:10141000140EF7220A00F550FA6E0800F5500DBEC2
:10142000F28EF96E12132C1346136013596A595039
:1014300013080BE3036A5950270FE96E000E0320CF
:10144000EA6E58C0EFFF592AF2D71200586A585076
:10145000130818E3036A5850270F016E000E032289
:1014600003C05AF0036A5850270FE96E000E03209C
:10147000EA6EEF50FF0A5AC0EAFF01C0E9FFEF6EC3
:10148000582AE5D762EF0AF0A00E586E010E596E89
:1014900084D6576A5750010817E33B50140811E0EF
:1014A000BCD601520DE056C059F055C058F0DED6FA
:1014B000015206E0AA0E586EB9DF010E016E09D086
:1014C000ECD7C4D7572AE6D7AA0E586EAFDF000E66
:1014D000016E64EF0BF0015055C05CF0640E5D6E60
:1014E000B1DE00C055F00150300E07E156A20DD01C
:1014F00056B60BD056B8200E03D056965698568046
:10150000012601509EA8FED7AD6E55C05CF00A0EB4
:101510005D6E98DE00C055F00150300E06E156B603
:1015200009D056A007D056B8200E012601509EA81B
:10153000FED7AD6E300E552655509EA8FED7AD6E27
:101540001200166AF2BE168EF29E55C06EF055EC71
:1015500005F016BEF28E015243E05550080DF350CF
:101560005E6A5D6E040E5D26000E5E22020E5D2434
:10157000016E000E5E20036E01C0E9FF040E03241D
:10158000EA6EECCF5CF0ED52EFCF5BF05CC0EAFFAF
:101590005BC0E9FF57C0E2FF56C0E1FF59C002F04F
:1015A00058C001F0015202E0022A02D0025206E0C5
:1015B000E6CFEEFF012EFCD7022EFAD7166AF2BE56
:1015C000168EF29E55C069F059C06BF058C06AF093
:1015D0005AC06CF075EC05F016BEF28E015002D0C8
:1015E000000E016EB6EF0BF0F86AD09E078E3B6AD4
:1015F0003C6A3E803E823E843E963E983F6A416A07
:10160000406A426A436A446A466A456A3E8AB886C4
:10161000E10EAF6E040EB06EA60EAC6E900EAB6E09
:10162000C150C00B0F09C16E070EB46E1B6A040EC9
:101630001C6E0C0E1D6E536A546AC150C00B0E090D
:10164000C16EC050C00B0709C06EC09EC280000EA4
:10165000016EC250C30B0110C26E949C8B9C949E71
:101660008B9E000E926EEE0EF66E0F0EF76EE4DCA1
:1016700006D5FA0EF66E0F0EF76EDEDC92908990AC
:101680009292899293928A82640E566EFBDC9290BB
:101690008980929289829296898608D593928A92BD
:1016A000C80E566EEFDC9290899092928992929633
:1016B0008996080EF66E100EF76EBEDC1BD52FD580
:1016C000566A4C0E556EE0D6015263E0F29CF29ED3
:1016D000F2BEFDD7929689869290898092928992E5
:1016E000050E516E1E0EF66E100EF76EA5DC4CC088
:1016F00055F01B0E566EEFDE2D0E9EA8FED7AD6E7A
:101700004DC055F01B0E566EE6DE2D0E9EA8FED780
:10171000AD6E4EC055F01B0E566EDDDE2D0E9EA832
:10172000FED7AD6E4FC055F01B0E566ED4DE2D0E9B
:101730009EA8FED7AD6E50C055F01B0E566ECBDE88
:101740000D0E9EA8FED7AD6E0A0E9EA8FED7AD6EFA
:10175000E3DC015212E0010E556E576A4C0E566ED4
:10176000596A51C058F0020E5A6EEBD6015205E08C
:101770002C0EF66E100EF76E5FDC020E556EFA0E32
:10178000566E80DC552EFBD792968996C00EF212CB
:0E17900004D0929289829290899090D70300A3
:020000040030CA
:0E00000024CE3E0E008781000FC00FE00F409F
:00000001FF
;PIC18F2550
;CRC=CA56  CREATED="18-Jun-14 12:10"
