:020000040000FA
:0600000086EF11F0120072
:020006001200E6
:06000800ADEF09F012004B
:06001800F8EF09F01200F0
:02001E000100DF
:0C002000442300009000000019000000C4
:04002C00020120515C
:100030001F0B010801E01200245101E01200060E1E
:10004000215D1AE12351230A17E0010A0BE0030A9C
:1000500013E10001630510E18C0E736F200E746FC5
:10006000090E06D00001090E736F210E746F200E69
:10007000766F776BC00E756F02012051600BE842FE
:10008000E842E842E842E842010801E0120021515A
:100090000B0A26E0080A19E0090A11E0080A05E03F
:1000A0000B0A23E0080A21E012000001600E736FC2
:1000B000000E746F010E766F776BC10E0FD00001CA
:1000C000800E756F23C260F012000001610E736F25
:1000D000000E746F010E766F776B810E756F1200D4
:1000E0000001800E756F22C261F01200D9CFE6FFC9
:1000F000E1CFD9FFE652A0940F015F6B626A536BA8
:10010000010EE66EE66AE66A540EE66E0F0EE66EC5
:1001100036EC11F0146E050EE15E1450160E616E91
:100120000F019F0E5B6F7B0E606EDF6ADF50146EF7
:10013000156A080E145C000E155810E2DF50040D0D
:10014000F3CFE9FFF4CFEAFF000EE926020EEA2220
:10015000EE6AEE6AEE6AEE6ADF2AE8D7648C0F0177
:100160005C6B6498649C62A607D062960001756B14
:100170007A6B7B6B7C6BF7D70001010E8C6F8D6FF8
:100180008E6B8F6B826BDF6A020EDF5C26E2EA6A9F
:10019000DF34FE0BEA36E96E6D0EE926000EEA2228
:1001A000EE6AED6AEA6ADF34FE0BEA36E96E690E42
:1001B000E926000EEA22EE6AED6ADF50EA6A860F4F
:1001C000E96E000EEA22EF6ADF50EA6A880FE96EF4
:1001D000000EEA22EF6ADF2AD7D70001080E6D6F02
:1001E000020E6E6F0F01160E536F0201200E026F8A
:1001F000020E036F080E016F840E006F0001636B27
:10020000626BE552E552E7CFD9FF1200D9CFE6FF86
:10021000E1CFD9FFE6520001620507E164BA05D0DB
:10022000626A60806088020E626F6250040B06E0B2
:100230006050040B03E06294EEEC06F064B25AD016
:100240006250010B09E06050010B06E04FDFA08413
:100250000001040E626F62906250100B06E0605065
:10026000100B03E0DAEC06F0629862AC19D060ACD7
:100270000FD0010EE66EE66A000EE66EE66A730EB9
:10028000E66EE66A85EC0AF0146E060EE15E145026
:10029000629C00018A5101E08A078A5101E1FDD97F
:1002A0006250200B05E06050200B02E0C0EC06F02D
:1002B0006250020B14E06050020B11E0010EE66E7A
:1002C000E66A000EE66EE66AE6687F0EE66E85EC8C
:1002D0000AF0146E060EE15E14500F015F6B040EFF
:1002E0000001E76E6219E8AE02D0E73402D0E750B1
:1002F000625D02E2A19439D060A636D0DF6A040EB6
:10030000DF5C32E262A630D063CF83F0000183511C
:10031000780BE842E842E842846F629683B506D0E3
:100320008451EA6A880FE96E000E05D08451EA6AAA
:10033000860FE96E000EEA22EF70845103E104ECAF
:1003400007F010D0000EE66EE66A830EE66E000E31
:10035000E66E720EE66EE66A85EC0AF0146E060E24
:10036000E15E1450DF2ACBD7A194E552E552E7CFE6
:10037000D9FF1200D9CFE6FFE1CFD9FF020EE12667
:10038000FD0EDBA407D0E66AFE0EDBCFE6FF14DA33
:10039000E552E552FD0EDBA208D0010EE66EFE0E20
:1003A000DBCFE6FF09DAE552E552FE0EDB50156AB7
:1003B000530F146E0F0E152214C0DEFF15C0DDFFA3
:1003C000DECFE9FFDDCFEAFFFD0EDBCFEFFF020E50
:1003D000E15C02E2E16AE552E16EE552E7CFD9FF66
:1003E0001200D9CFE6FFE1CFD9FF020EE126FD0EC4
:1003F000DB500AE0FE0EEA6ADB34FE0BEA36E96EF9
:100400006D0EE926000E09D0FE0EEA6ADB34FE0B03
:10041000EA36E96E690EE926000EEA22EECFDEFF2B
:10042000EDCFDDFFD9CFE9FFDACFEAFFEE50ED10D7
:1004300003E1F36AF46A44D0DECFE9FFDDCFEAFFDF
:10044000020EE926000EEA22FB0EDBCFEEFFFC0EC9
:10045000DBCFEDFFDECFE9FFDDCFEAFFEE52FA0E94
:10046000DBCFEFFF400EDECFE9FFDDCFEAFFE85044
:10047000EF16880EDECFE9FFDDCFEAFFE850EF127E
:10048000FD0EDB500AE0FE0EEA6ADB34FE0BEA36B4
:10049000E96E6D0EE926000E09D0FE0EEA6ADB3425
:1004A000FE0BEA36E96E690EE926000EEA22EF74C9
:1004B000DECF14F0DDCF15F014C0F3FF15C0F4FF4C
:1004C000020EE15C02E2E16AE552E16EE552E7CF3D
:1004D000D9FF1200D9CFE6FFE1CFD9FF020EE12606
:1004E000FE0EDB5020E167C0E9FF68C0EAFFEE5274
:1004F000080EEF6E67C0E9FF68C0EAFF020EE9264A
:10050000000EEA22200EEE6E020EED6E67C0E9FFCD
:1005100068C0EAFF8C0EEF6E6DC0E9FF6EC0EAFFA7
:10052000840EEF6E3BD0FD0EDB50E824166EFE0EFF
:10053000DB50040DF3501624040DF3CF14F0F4CF68
:1005400015F0000E1426020E152214C0DEFF15C091
:10055000DDFF840EDECFE9FFDDCFEAFFE850EF12CA
:10056000FD0EDB50E824166EFE0EDB50040DF3503A
:100570001624010F040DF3CF14F0F4CF15F0000E84
:100580001426020E152214C0DEFF15C0DDFF840EF6
:10059000DECFE9FFDDCFEAFFE850EF12020EE15CAB
:1005A00002E2E16AE552E16EE552E7CFD9FF1200BF
:1005B000D9CFE6FFE1CFD9FF64A84ED0FE0EEA6A9C
:1005C000DB34FE0BEA36E96E6D0EE926000EEA22F8
:1005D000EE50EFCFEAFFE96E400EEE16EE6AEE6ADD
:1005E000EE6AFE0EEA6ADB34FE0BEA36E96E6D0E49
:1005F000E926000EEA22EE50EFCFEAFFE96EEE7C2C
:10060000FE0EEA6ADB34FE0BEA36E96E6D0EE92671
:10061000000EEA22EF74400E146EFE0EEA6ADB341E
:10062000FE0BEA36E96E6D0EE926000EEA22EE5068
:10063000EFCFEAFFE96E1450EF16FE0EEA6ADB34E4
:10064000FE0BEA36E96E6D0EE926000EEA22EE5048
:10065000EFCFEAFFE96EEF7CE552E7CFD9FF12005A
:10066000646A606A0001626B12000001625114E169
:10067000646A606A160E616E0F019F0E5B6F7B0EDF
:10068000606ED08EA284A084F28E64B602D064869E
:10069000FCD70001010E626F120000018C514DE188
:1006A000010E8C6F8D5149E1010E8D6F020E725D4E
:1006B0000DE16DC0E9FF6EC0EAFFEE52EF6A6DC05A
:1006C000E9FF6EC0EAFFC80EEF6E1200720535E159
:1006D000856B65C0E9FF66C0EAFFEE52080EEF6E5B
:1006E00065C0E9FF66C0EAFF020EE926000EEA22B5
:1006F000200EEE6E020EED6E65C0E9FF66C0EAFFE9
:10070000840EEF6E010E856F67C0E9FF68C0EAFFD7
:10071000EE52080EEF6E67C0E9FF68C0EAFF020EF6
:10072000E926000EEA22200EEE6E020EED6E67C084
:10073000E9FF68C0EAFF800EEF6E120000018E6BC9
:100740008F6B020E725D18E167C0E9FF68C0EAFFB7
:10075000EE52080EEF6E67C0E9FF68C0EAFF020EB6
:10076000E926000EEA22280EEE6E020EED6E67C03C
:10077000E9FF68C0EAFF1DD076510201265D000145
:1007800077510201275904E226C276F027C277F09A
:10079000CAD86DC0E9FF6EC0EAFF020EE926000E5E
:1007A000EA22280EEE6E020EED6E6DC0E9FF6EC0FD
:1007B000EAFFC80EEF6E1200D9CFE6FFE1CFD9FFF6
:1007C000020EE126000EDE6E020EDD6EFD0EDB5027
:1007D000E824166EFE0EDB50040DF3501624040DB3
:1007E000F4CF15F0D9CFE9FFDACFEAFFF350EE26C8
:1007F0001550ED22DECFE9FFDDCFEAFFEF9EFD0EC3
:10080000DB500AE1FE0EEA6ADB34FE0BEA36E96EE3
:10081000690EE926000E09D0FE0EEA6ADB34FE0BF3
:10082000EA36E96E6D0EE926000EEA22DECFEEFF13
:10083000DDCFEDFFDECFE9FFDDCFEAFFEF9CDECFBE
:10084000E9FFDDCFEAFF040EE926000EEA22EF8C75
:10085000020EE15C02E2E16AE552E16EE552E7CFA9
:10086000D9FF12006498000175BF2BD07AAF09D070
:10087000020E726F8F5101E161DF00018D6B8C6B95
:10088000120067C0E9FF68C0EAFFEE52080EEF6E83
:1008900067C0E9FF68C0EAFF020EE926000EEA22FF
:1008A000200EEE6E020EED6E67C0E9FF68C0EAFF33
:1008B0008C0EEF6E6DC0E9FF6EC0EAFF840EEF6E26
:1008C0001200020120AF0DD00001010E726F8E5197
:1008D00001E134DF00018D6B8C6B8B5123E14DEF17
:1008E00003F00001020E726F67C0E9FF68C0EAFF03
:1008F000EE52080EEF6E67C0E9FF68C0EAFF020E15
:10090000E926000EEA22200EEE6E020EED6E67C0A2
:10091000E9FF68C0EAFF840EEF6E8D6B8C6B8B5124
:1009200001E1BBDE1200D9CFE6FFE1CFD9FFE652ED
:10093000080EDF6E0001765D000E77590AE276C080
:10094000DFFF715102E1010E03D0710502E1020ED9
:10095000716FDF50156AE850765D766F15507759E4
:10096000776F6DC0E9FF6EC0EAFFEE52DFCFEFFF99
:10097000280E7F6F020E806F75B118D0DF502DE00A
:1009800073C0F6FF74C0F7FF732B000E74230800CA
:10099000F550E66E7FC0E9FF80C0EAFF7F2B000EB6
:1009A0008023E552E750EF6EDF06E8D7DF5015E011
:1009B00073C0E9FF74C0EAFF732B000E7423EF507D
:1009C000E66E7FC0E9FF80C0EAFF7F2B000E802328
:1009D000E552E750EF6EDF06E9D7E552E552E7CF83
:1009E000D9FF1200D9CFE6FFE1CFD9FF020EE126F1
:1009F00065C0E9FF66C0EAFFEE52EFCFDFFFDFCF51
:100A000014F0145000017B5D000E7C5902E27BC0A3
:100A1000DFFFDF50146E156AE8507B5D7B6F155069
:100A20007C597C6F010EDB6ADF50F36E010EDBCF69
:100A3000F4FFF350F45C16E2010EDB50EA6A280F73
:100A4000E96E020EEA22EF50E66E78C0E9FF79C047
:100A5000EAFF782B000E7923E552E750EF6E010E86
:100A6000DB2AE2D7000ED8807B55000E7C5527E2AA
:100A700067C0E9FF68C0EAFFEE52080EEF6E67C07C
:100A8000E9FF68C0EAFF020EE926000EEA22280EFE
:100A9000EE6E020EED6E65C0E9FF66C0EAFFEF5034
:100AA000400B06E167C0E9FF68C0EAFFC80E05D049
:100AB00067C0E9FF68C0EAFF880EEF6E28D067C004
:100AC000E9FF68C0EAFFEE52080EEF6E67C0E9FF6B
:100AD00068C0EAFF020EE926000EEA22200EEE6E42
:100AE000020EED6E67C0E9FF68C0EAFF840EEF6E8C
:100AF0007D517E1107E005D07EC0FAFF00017D51D7
:100B0000F96EFADF00017A9F8B5101E1C6DD020E1A
:100B1000E15C02E2E16AE552E16EE552E7CFD9FF1E
:100B20001200D9CFE6FFE1CFD9FFE6520001758F61
:100B3000010EE66EE66AE66A540EE66E0F0EE66E8B
:100B400036EC11F0146E050EE15E1450200EE66EC8
:100B5000E66AE66A000EE66E020EE66E36EC11F00C
:100B6000146E050EE15E1450648CDF6A020EDF5CC9
:100B700010E2DF50EA6A860FE96E000EEA22EF6AA1
:100B8000DF50EA6A880FE96E000EEA22EF6ADF2A78
:100B9000EDD7010EE66EE66AE66A640EE66E000EBA
:100BA000E66E36EC11F0146E050EE15E1450649C96
:100BB0000001080E6D6F020E6E6F000E656F020E63
:100BC000666F65C067F0686F22C263F0635102E12F
:100BD000100E12D0010EE66EE66A630EE66E000E8F
:100BE000E66E010EE66EE66A85EC0AF0146E060EFD
:100BF000E15E14500001200E626FE552E552E7CF2E
:100C0000D9FF1200800E0201205D58E10001C00EE4
:100C1000756F02012351030A2FE0010A09E0030A5C
:100C20004BE10001680E736F200E746F120E3ED000
:100C30002251F66EF76AD890F636F736290EF62668
:100C4000210EF7220900F5CF73F00A00F5CF74F0FA
:100C5000020E0001F76A7325F66E7451F722080040
:100C6000F5CF76F0030EF76A7325F66E7451F7220E
:100C70000800F5CF77F01200030E225D1AE2225130
:100C8000F66EF76AD890F636F7362B0EF626210E5A
:100C9000F7220900F5CF73F00A00F5CF74F073C0A6
:100CA000F6FF74C0F7FF0800F5500001766F776B10
:100CB00012000001756B12000001756B1200D9CF94
:100CC000E6FFE1CFD9FF020EE1260201286B296B76
:100CD00020511F0B020A11E0030A0CE0010A3CE15B
:100CE0000001758F020128810001810535E10201B3
:100CF000288332D00001758F2FD00001758F02013B
:100D000024BF0BD024510F0BE96EEA6AD890E93664
:100D1000EA36690EE926000E0AD024510F0BE96E5F
:100D2000EA6AD890E936EA366D0EE926000EEA2224
:100D3000EECFDEFFEDCFDDFFDECFE9FFDDCFEAFF57
:100D4000EF50800B09E0DECFE9FFDDCFEAFFEF5087
:100D5000040B02E0010E286F000175AF07D0280ECA
:100D6000736F020E746F7581020E766F020EE15C76
:100D700002E2E16AE552E16EE552E7CFD9FF1200E7
:100D80000F0153A115D065C0E9FF66C0EAFFEF501F
:100D900080080DE16DC0E9FF6EC0EAFFEF508408E6
:100DA00006E165C0E9FF66C0EAFF8C0EEF6E539165
:100DB000629A12006084629864820001010E826F60
:100DC000000EE66EE66AE66EE66A750EE66EE66AA6
:100DD0009CDB146E060EE15E145012000001826B63
:100DE000000EE66EE66AE66EE66A740EE66EE66A87
:100DF0008CDB146E060EE15E14506492609462A463
:100E000002D06294FCD71200D9CFE6FFE1CFD9FF20
:100E1000E65200012D0E8A6FFD0E831553E17E0E02
:100E20008315E8407F0B040DF3CF65F0F4CF66F037
:100E3000000E6527020E662365C067F066C068F085
:100E4000677565C0E9FF66C0EAFFEF503C0BE842FA
:100E5000E8420D0835E1DF6A080EDF5C23E265C079
:100E6000E9FF66C0EAFF020EE926000EEA22EE5014
:100E7000EFCFEAFFE96EEF50E66EDF50EA6A200F2F
:100E8000E96E020EEA22E552E750EF6E65C0E9FF17
:100E900066C0EAFF020EE926000EEA22EE2AEF22E1
:100EA000DF2ADAD765C0E9FF66C0EAFF020EE9264D
:100EB000000EEA22200EEE6E020EED6E0DD807D067
:100EC00039D805D0FD0E8315040801E158D8E55244
:100ED000E552E7CFD9FF12000001716B8B6B8E6B6F
:100EE0008F6B856B726B6DC0E9FF6EC0EAFFEF9E82
:100EF0006D756DC0E9FF6EC0EAFFEF9E6D7567C04E
:100F0000E9FF68C0EAFFEF9E756B766B776B7A6BD3
:100F10007B6B7C6B8ED8000EE66EE66AE66EE66A48
:100F2000030EE66EE66AF1DA146E060EE15E145008
:100F300032EF04F0020E0001725D02E1F2EF04F004
:100F4000726B85511AE167C0E9FF68C0EAFFEE5293
:100F5000080EEF6E67C0E9FF68C0EAFF020EE926DF
:100F6000000EEA22200EEE6E020EED6E67C0E9FF63
:100F700068C0EAFF8C0EEF6E1200856B1200D9CFAD
:100F8000E6FFE1CFD9FFE6526DC0E9FF6EC0EAFF90
:100F9000EF50400B01E0010EDF6E00016D75080E91
:100FA000625D0BE122C25CFF0F015C5103E00001B6
:100FB000100E02D00001040E626F720526E16DC0B2
:100FC000E9FF6EC0EAFF020EE926000EEA22280EB3
:100FD000EE6E020EED6EA7DC020E0001715D06E101
:100FE0006DC0E9FF6EC0EAFF840E0DD0DF5006E150
:100FF0006DC0E9FF6EC0EAFFC80E05D06DC0E9FF05
:101000006EC0EAFF880EEF6E0FD07AAF0CD07D5124
:101010007E1107E005D07EC0FAFF00017D51F96E18
:10102000FADF00017A9F726BE552E552E7CFD9FFF4
:10103000120002012051600BE842E842E842E84217
:10104000E842000901E0120021510C0A4FE00B0AAE
:101050003FE00C0A31E0010A22E00B0A1EE0020A1E
:101060001CE0030A18E0080A10E0010A0CE00F0A6D
:1010700008E0030A01E012000001758F080E626F9C
:10108000120002EF06F091EF05F00001630E736F9E
:10109000000E746F0CD05FEF06F077EF08F024516C
:1010A0000001736F746B640E7327000E74237581D7
:1010B000010E766F758F12000001758F02012451A9
:1010C000EA6A640FE96E000EEA2222C2EFFF120004
:1010D000000EE66EE66AE66EE66A020EE66EE66A06
:1010E00014DA146E060EE15E145012001200D9CF0D
:1010F000E6FFE1CFD9FF050EE1260201220510E14E
:1011000020511F0B00090CE10001758F030E020135
:10111000215D04E10001010E816F02D00001816BAD
:101120000201225101E00FD120511F0B020801E002
:101130000AD124510F0B000901E105D124510F0BF5
:10114000010801E200D1200E0001625D01E0FBD048
:10115000758F020124BF16D024510F0BE96EEA6A85
:10116000D890E936EA36690EE926000EEA22EECF7B
:10117000DEFFEDCFDDFF24510F0BEA6A880FE96E29
:10118000000E15D024510F0BE96EEA6AD890E936AB
:10119000EA366D0EE926000EEA22EECFDEFFEDCF35
:1011A000DDFF24510F0BEA6A860FE96E000EEA227A
:1011B000020EEFCFDBFFD950020FE96EDACFEAFF64
:1011C000EF50010B03E1000EDF9401D0DF8424BF58
:1011D0000BD024510F0BE96EEA6AD890E936EA3653
:1011E000690EE926000E0AD024510F0BE96EEA6A57
:1011F000D890E936EA366D0EE926000EEA22DECFF7
:10120000EEFFDDCFEDFF030E215D20E1DECFE9FF34
:10121000DDCFEAFFEF50800B11E024BF07D024514F
:101220000F0BEA6A880FE96E000E06D024510F0BEF
:10123000EA6A860FE96E000EEA22EF82840EDECFA4
:10124000E9FFDDCFEAFFE850EF127DD0DF74DECF9B
:10125000E9FFDDCFEAFFEF50800B1AE0DECFE9FFB8
:10126000DDCFEAFFEF9EDECFE9FFDDCFEAFFEF8CB7
:10127000020EE66EE66ADECFE6FFDDCFE6FF050E84
:10128000E66EE66A42D9146E060EE15E145005D091
:10129000DECFE9FFDDCFEAFFEF8CDF74D950020F1C
:1012A000E96EDACFEAFFEF50020B07E1DECFE9FF8C
:1012B000DDCFEAFFEF50800B2AE0020124BF07D008
:1012C00024510F0BEA6A880FE96E000E06D02451F4
:1012D0000F0BEA6A860FE96E000EEA22EF923B0ED0
:1012E000146EDECFE9FFDDCFEAFFE850EF16020E05
:1012F000E66EE66ADECFE6FFDDCFE6FF050EE66EC0
:10130000E66A03D9146E060EE15E145007D03B0E58
:10131000DECFE9FFDDCFEAFFE850EF1602012451EE
:101320000F0B156A530F146E0F0E1522030E14C007
:10133000DBFF040E15C0DBFF030EDBCFE9FF040E5D
:10134000DBCFEAFFEF90050EE15C02E2E16AE552D5
:10135000E16EE552E7CFD9FF1200DACFE4FFE2CF2A
:10136000DAFFE9CFE4FFEACFE4FFF6CFE4FFF7CFFF
:10137000E4FFF5CFE4FFF3CFE4FFF4CFE4FFFACFCF
:10138000E4FF00EE00F0140EE80403E3EECFE4FF08
:10139000FBD700EE14F0040EE80403E3EECFE4FF05
:1013A000FBD7E65206EC01F0E55200EE17F0040E12
:1013B000E80403E3E5CFEDFFFBD700EE13F0140ED6
:1013C000E80403E3E5CFEDFFFBD7E5CFFAFFE5CF78
:1013D000F4FFE5CFF3FFE5CFF5FFE5CFF7FFE5CF6E
:1013E000F6FFE5CFEAFFE5CFE9FFE5CFDAFF110031
:1013F000D8CFE4FFE0CFE4FFE46EDACFE4FFE652BB
:10140000E552E5CFDAFFE550E5CFE0FFE5CFD8FFC5
:1014100010000F0EC11276EC00F0CF0EE66EE66AF9
:10142000E8EC10F0E552E552FFEC10F004EC11F09E
:10143000BCEC0AF0C4EF0AF0ECDF0201366B376B4C
:1014400035EC03F0A00EE66E000EE66E16EC11F021
:10145000E552E552020EE66EE66A010EE66EE66AB7
:101460008DEC0CF0E552E552E552E552A00EE66E29
:10147000000EE66E68EC0CF0E552E552200E00011D
:10148000E76E6219E8AE02D0E73402D0E750625D41
:1014900003E36450020B1AE0900EE66E000EE66E57
:1014A00016EC11F0E552E55256EC0CF0010EE66E2A
:1014B000E66A030EE66EE66A8DEC0CF0E552E55244
:1014C000E552E552900EE66E000E19D0970EE66ECC
:1014D000000EE66E16EC11F0E552E55256EC0CF0FB
:1014E000010EE66EE66A030EE66EE66A8DEC0CF01F
:1014F000E552E552E552E552970EE66E000EE66EB5
:1015000068EC0CF0E552E5529DD7D9CFE6FFE1CF6C
:10151000D9FFFD0EDBCF08F0FE0EDBCF09F0030E86
:10152000081801E1095021E0010E081820E10950D6
:101530001EE11E0EE66E010EE66EBAEC01F0E552FB
:10154000E552030EE66E300EE66E020EE66EE66AB9
:10155000010EE66EF1EC01F0146E050EE15E145022
:10156000F3CFA5F0F4CFA6F002D016EC00F0010EF8
:08157000E552E7CFD9FF12009C
:081578009490949294949496CF
:101580009498949A93981200020EE66E49D8E55208
:10159000010EE66E66EC11F0E552280EE66E40D8BC
:1015A000E552010EE66E66EC11F0E5520C0EE66EA9
:1015B00037D8E552010EE66E66EC11F0E552060EE4
:1015C000E66E2ED8E552010EE66E66EC11F0E5529D
:1015D000010EE66E66EC11F0E5521200D9CFE6FF7F
:1015E000E1CFD9FF020EE1268B84DE6ADD6ADECF11
:1015F00014F0DDCF15F0020E145C000E155805E254
:10160000DF2A010EF4E3DB2AF2D78B94020EE15CB1
:1016100002E2E16AE552E16EE552E7CFD9FF12003E
:10162000D9CFE6FFE1CFD9FF020EE1268B928B9056
:10163000FE0EDB380F0BDE6EDD6ADECF14F0DDCF81
:1016400015F0010E1414E8B08B86E8A08B96DECF5F
:1016500014F0DDCF15F0020E1416000E1516D890FA
:10166000153214321450E8B08B88E8A08B98DECF86
:1016700014F0DDCF15F0040E1416000E1516D890D8
:1016800015321432D890153214321450E8B08B8AC7
:10169000E8A08B9ADECF14F0DDCF15F0080E1416FB
:1016A000000E1516030ED89015321432E804FBE133
:1016B0001450E8B08A88E8A08A9890DFFE0EDB50CC
:1016C0000F0BDE6EDD6ADECF14F0DDCF15F0010EFC
:1016D0001414E8B08B86E8A08B96DECF14F0DDCF33
:1016E00015F0020E1416000E1516D890153214328D
:1016F0001450E8B08B88E8A08B98DECF14F0DDCFD3
:1017000015F0040E1416000E1516D890153214326A
:10171000D890153214321450E8B08B8AE8A08B9A16
:10172000DECF14F0DDCF15F0080E1416000E1516DE
:10173000030ED89015321432E804FBE11450E8B0DF
:101740008A88E8A08A984ADF050EE66E66EC11F0FA
:10175000E552020EE15C02E2E16AE552E16EE55219
:10176000E7CFD9FF1200D9CFE6FFE1CFD9FF020EB4
:10177000E1268B928B80FE0EDB380F0BDE6EDD6A6E
:10178000DECF14F0DDCF15F0010E1414E8B08B8617
:10179000E8A08B96DECF14F0DDCF15F0020E141604
:1017A000000E1516D890153214321450E8B08B88FC
:1017B000E8A08B98DECF14F0DDCF15F0040E1416E0
:1017C000000E1516D89015321432D89015321432F6
:1017D0001450E8B08B8AE8A08B9ADECF14F0DDCFEE
:1017E00015F0080E1416000E1516030ED8901532BB
:1017F0001432E804FBE11450E8B08A88E8A08A9823
:10180000EDDEFE0EDB500F0BDE6EDD6ADECF14F078
:10181000DDCF15F0010E1414E8B08B86E8A08B968E
:10182000DECF14F0DDCF15F0020E1416000E1516E3
:10183000D890153214321450E8B08B88E8A08B98F9
:10184000DECF14F0DDCF15F0040E1416000E1516C1
:10185000D89015321432D890153214321450E8B0A2
:101860008B8AE8A08B9ADECF14F0DDCF15F0080E3E
:101870001416000E1516030ED89015321432E80413
:10188000FBE11450E8B08A88E8A08A98A7DE050E2C
:10189000E66E66EC11F0E552020EE15C02E2E16AEE
:1018A000E552E16EE552E7CFD9FF1200010EE66E78
:1018B000B7DEE5521200D9CFE6FFE1CFD9FFFE0E29
:1018C000DBCFE6FF50DFE552E552E7CFD9FF12004C
:1018D000D9CFE6FFE1CFD9FFFD0EDBCFE9FFFE0E4A
:1018E000DBCFEAFFEF5015E0FD0EDBCFE9FFFE0E88
:1018F000DBCFEAFFEF50E66E36DFE552FD0EDB2A66
:10190000FE0E01E3DB2A020EE66E66EC11F0E552F4
:10191000E3D7E552E7CFD9FF1200D9CFE6FFE1CFF9
:10192000D9FF020EE126D950FB0FE96EFF0EDA2037
:10193000EA6E010EEE1801E1ED5003E0400EDE6E9E
:1019400001D0DE6ADD6AFD0EDBCF14F0FE0EDBCFC8
:1019500015F01406000E155AD9CFE9FFDACFEAFFC9
:101960001450EE261550ED22DECF14F0DDCF15F029
:10197000800E1410E66E54DEE552020EE66E66EC42
:1019800011F0E552020EE15C02E2E16AE552E16E1D
:10199000E552E7CFD9FF1200D9CFE6FFE1CFD9FF5B
:1019A000080EE126E80E146E030E156EFD0EDBCF59
:1019B00008F0FE0EDBCF09F014C00DF015C00EF0DC
:1019C00050EC11F0060E08C0DBFF070E09C0DBFF6C
:1019D000FD0EDBCF14F0FE0EDBCF15F0E80E0D6E22
:1019E000030E0E6E14C008F015C009F050EC11F093
:1019F00004C014F005C015F0640E0D6E0E6A04C02C
:101A000008F005C009F050EC11F008C014F009C04E
:101A100015F0040E08C0DBFF050E09C0DBFFFD0E4C
:101A2000DBCF14F0FE0EDBCF15F0E80E0D6E030ECB
:101A30000E6E14C008F015C009F050EC11F004C08F
:101A400014F005C015F0640E0D6E0E6A04C008F0A7
:101A500005C009F050EC11F004C014F005C015F0F9
:101A60000A0E0D6E0E6A04C008F005C009F050ECB5
:101A700011F008C014F009C015F0020E08C0DBFF19
:101A8000030E09C0DBFFFD0EDBCF14F0FE0EDBCF33
:101A900015F0E80E0D6E030E0E6E14C008F015C0A2
:101AA00009F050EC11F004C014F005C015F0640EFC
:101AB0000D6E0E6A04C008F005C009F050EC11F07C
:101AC00004C014F005C015F00A0E0D6E0E6A04C0B5
:101AD00008F005C009F050EC11F004C014F005C086
:101AE00015F004C0DEFF05C0DDFF060EDBCF14F0ED
:101AF000070EDBCF15F0300E1424E66E34DEE5520F
:101B0000040EDBCF14F0050EDBCF15F0300E1424DD
:101B1000E66E29DEE552020EDBCF14F0030EDBCFBA
:101B200015F0300E1424E66E1EDEE552DECF14F002
:101B3000DDCF15F0300E1424E66E15DEE552080EEA
:101B4000E15C02E2E16AE552E16EE552E7CFD9FFDE
:101B50001200D9CFE6FFE1CFD9FF020EE1260A0E2F
:101B6000146E0E6EFE0EDBCF09F065EC0FF009501F
:101B7000DF6EFE0EDBCF14F014C009F00A0E0E6EFD
:101B800065EC0FF0010E05C0DBFFDFCF14F0E76E50
:101B90001418E8AE02D0E73402D0E750145C05E335
:101BA000300EDF24E66EDFDDE552010EDB50300F34
:101BB000E66ED9DDE552020EE15C02E2E16AE55231
:101BC000E16EE552E7CFD9FF1200D9CFE6FFE1CFB2
:101BD000D9FF0C0EE126D9CFE9FFDACFEAFF2E0EAE
:101BE000EE6EEE6AFB0EDBCF14F0FC0EDBCF15F0D1
:101BF000FD0EDBCF16F0FE0EDBCF17F00C6A0D6A80
:101C0000200E0E6E410E0F6E14C007F015C008F0C6
:101C100016C009F017C00AF0F8EC0EF07FEC0FF0D8
:101C2000020E08C0DBFF030E09C0DBFFE80E146ED6
:101C3000030E156E020EDBCF08F0030EDBCF09F0AA
:101C400014C00DF015C00EF050EC11F00A0E08C0D3
:101C5000DBFF0B0E09C0DBFF020EDBCF14F0030E1F
:101C6000DBCF15F0E80E0D6E030E0E6E14C008F0FB
:101C700015C009F050EC11F004C014F005C015F0C7
:101C8000640E0D6E0E6A04C008F005C009F050EC39
:101C900011F008C014F009C015F0080E08C0DBFFF1
:101CA000090E09C0DBFF020EDBCF14F0030EDBCF01
:101CB00015F0E80E0D6E030E0E6E14C008F015C080
:101CC00009F050EC11F004C014F005C015F0640EDA
:101CD0000D6E0E6A04C008F005C009F050EC11F05A
:101CE00004C014F005C015F00A0E0D6E0E6A04C093
:101CF00008F005C009F050EC11F008C014F009C05C
:101D000015F0060E08C0DBFF070E09C0DBFF020E50
:101D1000DBCF14F0030EDBCF15F0E80E0D6E030ED3
:101D20000E6E14C008F015C009F050EC11F004C09C
:101D300014F005C015F0640E0D6E0E6A04C008F0B4
:101D400005C009F050EC11F004C014F005C015F006
:101D50000A0E0D6E0E6A04C008F005C009F050ECC2
:101D600011F004C014F005C015F0040E04C0DBFF30
:101D7000050E05C0DBFF0A0EDBCF14F00B0EDBCF28
:101D800015F0300E1424E66EEEDCE552080EDBCFC3
:101D900014F0090EDBCF15F0300E1424E66EE3DCF0
:101DA000E552060EDBCF14F0070EDBCF15F0300E38
:101DB0001424E66ED8DCE552D9CFE6FFDACFE6FF91
:101DC00087DDE552E552040EDBCF14F0050EDBCFC4
:101DD00015F0300E1424E66EC6DCE5520C0EE15C04
:101DE00002E2E16AE552E16EE552E7CFD9FF120067
:101DF000016A06EC10F01EEC10F001B6AEEF0FF029
:101E000001A205D001B8AEEF0FF0B5EF0FF001AAB7
:101E100005D001B0AEEF0FF0B5EF0FF001B002D07A
:101E200001A802D0C1EF0FF0056A0F500A24046E1A
:101E3000E86A05227E0E045EE86A055A126A136A91
:101E4000026A036A0E500902F4CF03F0F3CF02F0E6
:101E50000D500902F3501326F4500222000E032203
:101E60000E500802F3501326F4500222000E0322F3
:101E70000C500902F3501226F4501322000E0222D5
:101E800003220D500802F3501226F4501322000EC4
:101E9000022203220E500702F3501226F45013229E
:101EA000000E022203220C500802F4501226000EEB
:101EB0001322022203220D500702F4501226000EB4
:101EC000132202220322CAEF0FF0006A0EAE6BEF5C
:101ED0000FF00E6C001E09AE70EF0FF0096C001EC3
:101EE00094EC11F009BE7AEF0FF000AE000C096C13
:101EF000056C000C00BE77EF0FF00188FF0C016A43
:101F000006EC10F001B689EF0FF001A20ED001B47B
:101F100005D07F0E096EFF0E086E1FD0800E096E71
:101F2000086A1BD0096A086A18D001B0FBD78F0E67
:101F30000A60EDD77E0E0A64F5D78E0E0A5C05E0C6
:101F4000D890093208320A2AF8D701A406D0086CC2
:101F5000091EE86A092209AEE5D712007F0E0A6E53
:101F6000FF0E096E086E076E12007F0E01BEFF0E97
:101F70000A6E02D07F0E0A6E800E096E086A076A2A
:101F8000F3D701AE04D0800E0A6E096AF7D70A6A49
:101F9000096AF4D70350021013101210F8E005BEBE
:101FA000F0D703BE0CD004500510EBE0D8901236E9
:101FB0001336023603360406D8A00506F2D70550BC
:101FC000D4E10428D2E012AE11D07F0E121402E147
:101FD00013A00CD0132AE86A0222032207E3D88058
:101FE000033202321332042A0428BFE00450C9E04D
:101FF00013C007F002C008F00334096E04300A6E03
:1020000009320A9E01BE0A8EB4EF0FF009360A3675
:1020100002E30184017E06E101800A6A096A086A16
:10202000076A12000A2803E0D88009321200D8900B
:10203000093202E101821200018612000E360F36CB
:1020400002E3018C017E06E101880F6A0E6A0D6AC7
:102050000C6A12000F2803E0D8800E321200D890CC
:082060000E32EAE1018A1200D0
:08206800120100020000000853
:102070000000020002000102000109022900010122
:1020800000C0320904000002030000000921110110
:102090000001222000070581030300010705010359
:1020A0000300010403090434034D00690063007256
:1020B000006F006300680069007000200054006534
:1020C00000630068006E006F006C006F00670079AD
:1020D00000200049006E0063002E002E03530069AB
:1020E000006D0070006C006500200048004900444D
:1020F0000020004400650076006900630065002050
:1021000000440065006D006F000600FF0901A10199
:1021100019012908150025FF75089503810019018B
:102120002908750895039100C07A20A320A720DB19
:01213000208E
:0E2132001E0EF66E000EF76E000EF86E000127
:102140000900F550AE6F0900F550AF6F03E1AE67BF
:1021500001D03DD00900F550A96F0900F550AA6FD4
:102160000900F550AB6F09000900F550E96E090050
:10217000F550EA6E090009000900F550AC6F09003E
:10218000F550AD6F09000900F6CFB0F0F7CFB1F010
:10219000F8CFB2F0A9C0F6FFAAC0F7FFABC0F8FFB6
:1021A0000001AC5302E1AD5307E00900F550EE6EBB
:1021B000AC07F8E2AD07F9D7B0C0F6FFB1C0F7FF42
:1021C000B2C0F8FF0001AE07000EAF5BBFD7120030
:1021D000D9CFE6FFE1CFD9FFAC84B886FD0EDB5046
:1021E000AF6E938A939EAC98AB8EAC8AAD6A9D8A93
:1021F000F28EF28CAB88E552E7CFD9FF1200B89887
:10220000AC8CAC8AAD6A12009D8AF28EF28CAB88DF
:102210001200D9CFE6FFE1CFD9FFACA2FED7FE0E68
:10222000DB50AD6EE552E7CFD9FF1200D9CFE6FF04
:10223000E1CFD9FFFD0EDBCFE9FFFE0EDBCFEAFFDA
:10224000EF5010E0FD0EDBCFE9FFFE0EDBCFEAFF23
:10225000EF50E66EDEDFE552FD0EDB2AFE0EEAE30E
:0C226000DB2AE8D7E552E7CFD9FF1200D7
:04226C00FE0EE3CFB0
:10227000E9FFFF0EE3CFEAFFE9CFF3FFEACFF4FF78
:10228000FB0EE35003E1FC0EE35009E0FB0EE30616
:1022900002E2FC0EE306FD0EE350EE6EF1D71200F3
:1022A000056A046A100EE76ED890083609360436BF
:1022B00005360D50045C0E50055805E30D50045EC4
:0C22C0000E50055A082AE72EF0D7120035
:0422CC00FF0EE350CE
:1022D000186E480E01D04C0EE76EE72EFED7E76A67
:0C22E000E72EFED7182EF7D700001200E2
:0422EC00000EF36E7F
:1022F00000EE00F0030E01D81200EA6002D0EE6A90
:0C230000FCD7F350E9601200EE6AFCD735
:04230C0011EE00F0DE
:1023100021EE00F0F86A019C99EC10F003EC00F05B
:082320001CEC0AF0FBD71200CF
:08232800056A080EE76ED8906B
:10233000093605360E50055C02E3056E092AE72EC4
:04234000F7D71200B9
:0C234400204572726F72002053756363B5
:0D23500065737300496E69740000000000A1
:020000040030CA
:0100000000FF
:0100010032CC
:0100020001FC
:010003001EDE
:01000500807A
:010006008178
:0100080003F4
:01000900C036
:01000A0003F2
:01000B00E014
:01000C0003F0
:01000D0040B2
:00000001FF
